:020000040800F2
:10000000C8040020CD00000891140008D113000896
:1000100000000000000000000000000000000000E0
:10002000000000000000000000000000951400081F
:10003000000000000000000093140008991400085C
:10004000DF00000800000000DF000008DF000008FB
:10005000DF000008DF000008DF000008DF00000804
:1000600000000000DF000008DF000008DF000008DB
:10007000DF000008DF000008DF00000800000000CB
:10008000DF000008DF000008DF000008DF000008D4
:10009000DF000008DF000008DF000008DF000008C4
:1000A000DF000008DF000008DF000008DF000008B4
:1000B000DF000008DF0000080348854600F03CF838
:1000C0000048004749190008C80400200448804738
:1000D00004480047FEE7FEE7FEE7FEE7FEE7FEE72F
:1000E00021150008B900000830B50B460146002074
:1000F0002022012409E00D46D5409D4205D31D462E
:100100009540491B2546954040191546521E002D25
:10011000F1DC30BDD2B201E00270401C491EFBD2BE
:1001200070470022F6E710B513460A460446194602
:10013000FFF7F0FF204610BD064C0125064E05E0F6
:10014000E36807CC2B430C3C98471034B442F7D3F8
:10015000FFF7B6FF401D0008601D000870B504469B
:10016000006801F03AF9002820D0206881688907EA
:10017000C90F04D181680E4A11401031816000F02E
:10018000BDFC05460EE000F0B9FC401B022809D971
:10019000A06D10210843A065E06D01210843E065D2
:1001A000084670BD206880684007ECD4002070BD10
:1001B000E8FFFF7FF8B50446006881688907CD0F26
:1001C00001F007F9002826D0002D24D1206881688D
:1001D0000522114010250126012910D181680F4AFE
:1001E0001140891C816021680320086000F086FCB2
:1001F00007460CE000F082FCC01B022807D9A06D66
:100200002843A065E06D3043E0650120F8BD20681B
:100210008068C007EED10020F8BD0000E8FFFF7F36
:10022000F8B50446006801F0D4F800282ED1206803
:100230008168174A10261140002919D18168D543D9
:100240002940491C8160607E01281FD000F056FCC7
:10025000074616E001F0BDF8002804D12068816847
:100260002940491C816000F049FCC01B022808D9C4
:10027000A06D3043A065E06D01210843E0650846AC
:10028000F8BD20680168C943C907E3D10020F8BD63
:100290001700008070470000F8B5002605460446A8
:1002A00040350096287D01280ED001202875204673
:1002B000FFF780FF024620688168C907C90F05D093
:1002C000A06D1021084330E00220F8BDA16DFF238E
:1002D0000133994302231943A165C168C3688907A3
:1002E000890F9B089B00C360206883680127FF0774
:1002F0003B4383600F4B20680DE0009F7F1C0097FD
:100300009F4208D3A06D0221884310210843A065B5
:100310002E750120F8BD8768FF0FEED1C3680B432F
:10032000C360A06D80088000401CA0652E7510463B
:10033000F8BD000000F20200F8B5002706460446AA
:1003400040360097307D0D4601280FD001203075D2
:10035000206801F042F800280AD0A06D202108434F
:10036000A0650127002030753846F8BD0220F8BD91
:10037000686802287ED001222169D207914202D00A
:10038000121D914206D120682968826A4903490BEF
:100390000A436EE0C206D20E0F20216E90408143C8
:1003A0002868430302D0C3074BD102E04000C00ECF
:1003B00048E0830701D5012044E0430701D502202E
:1003C00040E0030701D503203CE0C30601D504202B
:1003D00038E0830601D5052034E0430601D5062028
:1003E00030E0030601D507202CE0C30501D5082025
:1003F00028E0830501D5092024E0430501D50A2022
:1004000020E0030501D50B201CE0C30401D50C201E
:1004100018E0830401D50D2014E0430401D50E201B
:1004200010E0030401D50F200CE0C30301D5102018
:1004300008E0830301D5112004E0400301D5122018
:1004400000E000209040014321666968E269880865
:10045000401C904210D820682B68826A9C46C906CE
:10046000C90E0F238B409A4363469B001B0F8B40A2
:100470001A4300E038E082622168AB6828684A6964
:100480000002824318404001400902434A61286843
:10049000002800DB66E7294A116807239B051940FD
:1004A000274B984211D10B020FD4C00201431046D2
:1004B00000F09FFF244823490068FFF715FE00E085
:1004C000401E00900028FBD14CE7204B984203D1FE
:1004D000CB0101D4800205E01D4B9842DAD14802DD
:1004E000D8D45802014325E001212069C907884278
:1004F00002D0091D884206D120682968826A490312
:10050000490B8A43826228680028C3DA0B4A1168C3
:1005100007239B0519400A4B984201D1C00208E00D
:100520000A4B984201D1800203E0094B9842B1D1B5
:1005300040028143104600F05CFF13E708270140AA
:10054000001000B0400D030028000020004000B85B
:10055000002000B40068006C70470000F0B5002671
:1005600085B00446029601960096002803D0A06D3F
:10057000002803D009E0012005B0F0BD204600F0BE
:1005800013F90020E0655421085520688168C900EE
:10059000C90F11D181687C4A114001221207114311
:1005A00081607B4879490068FFF79EFD400000E0CC
:1005B000401E00900028FBD1206881681025C900EA
:1005C000C90F0127002906D1A16D2943A165E16D5D
:1005D0003943E165012600F000FFA16D10221140B2
:1005E0000143A06D03D010210843A065C9E0FF219D
:1005F0000131884302210843A065206800F0E9FE2C
:10060000002822D12168C86818229043A2681043AC
:10061000C86020680169626889008908920F9207A2
:100620001143016103216068890788420DD0494266
:1006300088420AD04900884207D0564B9A680F2159
:1006400089048A43084002439A60207E8503607EC5
:10065000C0030543A07E41030D43216B002901D057
:10066000012109030D43E1680D432169002902DAE4
:100670004900490801E0012149050D432146203187
:100680000A7B52001543029A15430A78012A08D1C1
:1006900000281DD0A06D20221043A065E06D3843D6
:1006A000E065606A002806D0FF23C1331840A26AC3
:1006B000284302431546626C206CE36C1043A26C25
:1006C000097F1A431043019A1043012904D004E022
:1006D000012000040543E4E738432168CA682E4B33
:1006E0001A402A43CA6021680A692C4B1A40024307
:1006F0000A610021626B206800F082FE2849A26B2B
:10070000206800F07DFE206900282AD001214905DB
:10071000884218D1216E002082000B46D340DA4374
:10072000120702D0401C0828F6D3012819D02268ED
:10073000906A207F8000001FC3060F20DB0EC0439D
:100740009840084390622068C06816490840A84253
:100750000ED10020E065A06D80088000401CA065DF
:1007600010E02068816A0F22D24311438162EAE7D8
:10077000A06D0221884310210843A065E06D384335
:10078000E06501263046F7E6E8FFFF7F400D0300F5
:1007900028000020002701401902FEFF02FCFFDFB5
:1007A00004FFFF07E7FF3F8310B58EB00446142116
:1007B00007A8FFF7B6FC1C216846FFF7B2FC1749F3
:1007C0002068884227D101208003009000200590F6
:1007D000684600F053FA002801D0FFF75BFD10488F
:1007E0000268012109050A430260006808400C9074
:1007F0000B484038426B01210A434263406B099128
:1008000008400C900220079003200890052007A9BB
:10081000000700F0CDF80EB010BD0000002401402C
:1008200040100240F8B5044640690D46082809D03A
:100830002068C068C00707D0A06D20210843A065CC
:100840000120F8BD082600E0042600F057F907460D
:1008500008E0681C06D000F051F9C01BA84214D86B
:10086000002D12D0206800683042F2D0A06D012126
:1008700049020843A065206800F0B3FD0C2500285C
:100880001CD0A07E002809D018E0A06D04210843E8
:10089000A0650020403420750320F8BD2068016861
:1008A00009070BD500F099FD012100280AD0A06DA1
:1008B00020221043A065E06D0843E065207E0028FB
:1008C0000BD00CE020684268AA434260A06DFF2272
:1008D000013290430843A065F0E7206805600020DE
:1008E000F8BD000070B50446006800F076FD0028F1
:1008F00002D00221084670BD25464035287D0128DA
:100900000AD0012028752046FFF78AFC0146002006
:10091000002903D02875EDE7022070BDA26D094BB8
:100920001A40FF2301331A43A265E06523681C22A5
:100930001A60287520688268034B1A40121D826075
:10094000D8E70000FEF1FFFFE8FFFF7F70B5054626
:1009500004464035287D012807D001262E75204603
:10096000FFF7FCFB002802D00CE0022070BD2046FF
:10097000FFF720FC002805D1A16DFF220132914331
:100980003143A1650021297570BD000070B5044692
:1009900000F0B4F80546601C02D0044840682418F2
:1009A00000F0ACF8401BA042FAD370BD1C00002040
:1009B000F0B5002388E001229A40944614402200BA
:1009C0007ED04C68022C01D0122C0CD1DC08A40083
:1009D00027183C6A5D07ED0E0F26AE40B4430E6942
:1009E000AE4026433E6205685E000324B4400F79A2
:1009F000A543BF07BF0FB7402F4307604D68012DC8
:100A000005D0022D03D0112D01D0122D0ED18568F5
:100A1000CF68A543B7402F43876047686546AF431B
:100A20000D79ED06ED0F9D403D434560C568A5433A
:100A30008C68B4402C43C4604C68E40043D59D08E6
:100A4000244CAD002F193C6E9D07EE0E0F25B540CE
:100A5000AC4305252D07A84201D100250FE01E4D0E
:100A6000A84201D101250AE01C4DA84201D102256E
:100A700005E01B4DA84201D1032500E00525B54046
:100A80002543144C3D66134D80352E684F689643C0
:100A9000FF0300D516432E606E684F689643BF0370
:100AA00000D516436E6025684E689543F60200D562
:100AB0001543256065684E689543B60202D500E08F
:100AC00001E0154365605B1C0A681446DA4000D0FB
:100AD00071E7F0BD0018024000040050000800500B
:100AE000000C00500069084000D001207047002A27
:100AF00001D08161704781627047000001488068C1
:100B0000704700001C00002070B504000FD0216861
:100B10001348086021681348086003CC41602068CE
:100B2000083C21688860FFF7E9FF054608E00120DE
:100B300070BDFFF7E3FF401B302801D9032070BDD3
:100B40002068C0680028F4D120680269E1688A4200
:100B500001D0016101E004490160002070BD000086
:100B6000CCCC000055550000AAAA0000006802493C
:100B70000160002070470000AAAA000002488168B6
:100B800042688918816070471C00002010B5084831
:100B900000240168821511430160204600F00AF824
:100BA000002801D0012401E000F028F8204610BD03
:100BB0000020024070B50F4E0024716805460029E0
:100BC00015D07D20C000FFF78FFA01460A48006863
:100BD000FFF78AFA00F0E4FB002808D1042D06D2C2
:100BE00000222946401E00F01FF8356000E0012475
:100BF000204670BD1C0000202800002008B50948D0
:100C0000016801221143016000681040009005480E
:100C10004038C26B01040A43C263C06B08400090B5
:100C200008BD00004010024010B500F081FC10BD6E
:100C300010B50F4C216803225202914301432160F9
:100C4000C11FFF39FA390ED10A480621006848430E
:100C50000949FFF749FA401C02E0002805D0401E70
:100C600061694905F9D4002010BD032010BD0000C2
:100C7000007000402800002040420F00F8B50446F4
:100C800000680026524D800358D55148002740384F
:100C9000C06BC00009D44E484038C26B01040A43FF
:100CA000C263C06B0840012700904A480168821562
:100CB00011430160FFF722FF009005E0FFF71EFFE0
:100CC0000099401A022825D842480068C005F5D589
:100CD000E8690321090208400FD0A16981420CD0C4
:100CE000E86903210902EA698843012109040A43EA
:100CF000EA61EA698A43EA61E861C0070FD0FFF759
:100D0000FDFE009008E0FFF7F9FE0099411A324815
:100D1000814201D9032609E0E8698007F3D5E86933
:100D2000032109028843A1690843E861002F05D027
:100D300027484038C16B02049143C1632078C00743
:100D400005D0686961688008800008436861207880
:100D5000800705D568690C218843A168084368614C
:100D60002078400606D56869032109038843E168B5
:100D7000084368612088400411D568696169800072
:100D8000800808436861012160698907884206D1AB
:100D90000F484038C168012212041143C160208805
:100DA000000512D568690321890388432169084336
:100DB0006861012120698903884206D104484038CE
:100DC000C168012212041143C1603046F8BD000021
:100DD000401002400070004088130000F8B50F4634
:100DE000060043D04D4D28684007400FB84213D24B
:100DF0002868C008C00038432860FFF77FFE04461B
:100E000005E0FFF77BFE011B4548814261D8286859
:100E10004007400FB842F4D13068424C81070DD5ED
:100E2000400704D5A068072109030843A060A06813
:100E30000F2109028843B1680843A0603078C007D9
:100E400032D0706801280AD002280BD000280FD0B9
:100E50003449403103280ED0C969890704E021686C
:100E6000890301E021688901002906DB0120F8BD22
:100E700021684905F8E7096AEFE7A168C908C900D0
:100E80000143A160FFF73AFE009006E0FFF736FE4F
:100E90000099411A224881421BD8A0683821084095
:100EA0007168C9008842F1D128684007400FB842F4
:100EB00017D91A480168C908C90039430160FFF70A
:100EC0001DFE054607E0FFF719FE411B144881424D
:100ED00001D90320F8BD114800684007400FB8420F
:100EE000F1D13078400706D5A0680721090388436F
:100EF000F1680843A06000F01DF8A1683C22890950
:100F00001140094A515CC906C90EC840074908602A
:100F100007480068FFF74EFEF8BD000000200240C1
:100F20008813000000100240001D00082800002067
:100F30001C00002010B5204CA068204A8006400FFD
:100F400016D0A0688006410F501001290FD0A1686B
:100F50008906490F022912D0A0688006400F042894
:100F600023D0A0688006400F032821D0002010BDA8
:100F7000206801218004400F8140104612E0E168A2
:100F80008B07E1689B0F4906490F491C032B00D0D2
:100F90001046FFF7A9F8E1684904490E4843E168A3
:100FA000490F491CFFF7A0F810BD0120C00310BD78
:100FB0007D20000210BD0000001002400024F4005B
:100FC000F8B504007ED020783827C007EB4D002804
:100FD00046D0A868E96838408907890F102802D0F0
:100FE00008280BD001E0032908D001206268000422
:100FF00082420AD129680143296015E028688003EC
:101000002ED560680028DDD02AE0052301211B04CD
:1010100089049A422A6802D10A432A60EAE7824395
:101020002A60286888432860606800280CD0FFF791
:1010300065FD064604E0FFF761FD801B642873D858
:1010400028688003F7D50BE0FFF758FD064604E05B
:10105000FFF754FD801B6428F1D828688003F7D47B
:101060002078800769D5A868E96838408A07072191
:10107000920FC902102802D0002813D001E0022AE2
:1010800010D0E068002846D02868884321690843CA
:1010900028602868FF21013108432860FFF72EFDF2
:1010A00006462CE02A68520502D5E268002A89D05B
:1010B0006A687F231B029A4363691B021A436A60B2
:1010C000002800E08DE00ED128688843216908439C
:1010D0002860286801218004400F8140A848FFF75C
:1010E00003F8A8490860A8480068FFF763FD0028D6
:1010F00077D122E0FFF702FD801B02289FD82868E5
:101100004005F7D568687F210902884361690902B3
:101110000843686011E02968FF200130814329609D
:10112000FFF7ECFC064605E098E0FFF7E7FC801BC4
:10113000022884D828684005F7D42078934E000709
:101140002ED5A8688006400F03280AD0A069002881
:10115000306A16D0012108433062FFF7CFFC074602
:101160000BE0306A80071BD5A06900289FD017E0EC
:10117000FFF7C4FCC01B022870D8306A8007F7D57F
:101180000EE0400840003062FFF7B8FC074604E07C
:10119000FFF7B4FCC01B022860D8306A8007F7D480
:1011A000207840076CD5A86800278006400F0428E7
:1011B00018D0E86BC00008D4E96B01200007014398
:1011C000E963E96B01400127009171480168C90595
:1011D00019D40168821511430160FFF78FFC00905C
:1011E0000DE083E0F06980074AD5A06800287DD033
:1011F00046E0FFF783FC0099401A02282ED8644885
:101200000068C005F5D5A168012910D00420052982
:10121000F16911D049084900F161F1698143F16137
:10122000A068002816D0FFF769FC00900EE0F06976
:1012300001210843F061F3E70143F161F7E7FFF7AC
:101240005DFC0099411A534881426DD8F0698007CE
:10125000F5D50EE0FFF752FC009007E064E0FFF7E1
:101260004DFC0099411A4B4881425DD8F0698007D6
:10127000F5D4002F04D0E96B012000078143E96316
:10128000E069002877D0A9688906490F022951D062
:1012900001263606022828680DD0B0432860E86889
:1012A00080088000E860E8683B490840E860FFF794
:1012B00025FC04463AE0B0432860FFF71FFC0746D0
:1012C00004E0FFF71BFCC01B02282DD82868800112
:1012D000F7D4616A206AA26A0843E16A12021143E4
:1012E0000843216B0843E9682C4A00E041E01140C3
:1012F0000843E860286830432860E868012109074E
:101300000843E860FFF7FAFB044604E0FFF7F6FB4A
:10131000001B022808D828688001F7D52BE0FFF7CA
:10132000EDFB001B022801D90320F8BD28688001CD
:10133000F5D420E00128F8D0E868226A8107890FF7
:10134000914216D17021626A0140914211D17F21F0
:10135000A26A09020140120291420AD11F214904E6
:10136000E26A0140914204D1400F216B400788425C
:1013700001D00120F8BD0020F8BD0000001002409F
:101380000024F400280000201C000020401002402F
:101390000070004088130000FFFFFEEF8C80C11F2B
:1013A000094910B5401E884201D9012010BD074CE3
:1013B00060610321081F00F0BBF80020A061072036
:1013C0002061002010BD0000FFFFFF0000E000E0F2
:1013D000FEE78068C007C00F704780684007C00FF5
:1013E0007047C0680005800F01D0002070470120C1
:1013F0007047026807239B059A430A4302607047BF
:1014000010B543690424214007248C40A3438A403B
:101410001343436110BD00003EB500241A480094F8
:10142000019418490294016084600122C460090596
:10143000026141600421416104764476014684766C
:1014400020310C7044628462C2610C7307224263D3
:10145000046382630C77C464FFF780F8002801D02E
:10146000FEF718FF09480090019469460294064867
:10147000FEF762FF002801D0FEF70CFF0248FEF7DE
:101480000BFF3EBD00240140640000200200000468
:10149000704770477047000010B5FFF76FFB0748B3
:1014A0007D2241881201491C41808188491C89B2F2
:1014B0008180914200D9828010BD00000000002090
:1014C00030B591B034216846FEF72BFE0024012090
:1014D0000D940E940F9440021094FFF7A9FB09207D
:1014E0000090012000040190012006900320089044
:1014F00010200A90400302250B90079500030C90E2
:1015000009946846FFF75CFD07200D900F940221B7
:101510000E9510940DA8FFF761FC11B030BD0000CE
:1015200001200249C00688607047000000ED00E01D
:101530008307FF22DB0E9A408907090E9940002895
:1015400008DB830809489B001B1818689043084370
:10155000186070470007000F0838830804489B0094
:101560001B18D86990430843D861704700E400E035
:1015700000ED00E002E008C8121F08C1002AFAD1FD
:1015800070477047002001E001C1121F002AFBD103
:101590007047000010B50848FFF7A4F90A21064873
:1015A000FFF740F90448FEF7D5FF04460248FFF76D
:1015B000CDF9204610BD00006400002070B5002465
:1015C0002546FFF7E7FF04191548FFF7CFFA0A2071
:1015D000FFF7DCF96D1C0A2DF3DB1248124960435A
:1015E000FEF782FD0E49192252010023283990424C
:1015F00001D20B770EE001220A770C494B254418E3
:101600000749ED000839AC4206D9084C6442A042B3
:1016100002D20B71002070BD0A71012070BD000064
:1016200054000020B20C0000F69F000068F7FFFF96
:1016300010B5040009D0064804490068FEF754FDBF
:10164000604300E000BF401EFCD210BD40420F00CE
:101650002800002010B5002100F034FA10BD000071
:1016600010B50446FFF74AFA0D49002C02D008894C
:1016700080B212E00A69FF23821AF5339A420ED92A
:101680000A78002A06D000220A700861002A03D0D6
:10169000044802E00122F7E70020FFF7DBFF10BD5E
:1016A00000000020B8220000F8B5FFF727FA002557
:1016B00004462E46FFF76EFF45194648FFF756FAD7
:1016C000F043800702D10120FFF760F9761C802EDD
:1016D000F0DB414841496843FEF706FD3D4D404E71
:1016E00019277F01283DB060B8420BD2002028772F
:1016F000F068201A642803D30020FFF7ABFFF460E2
:101700000220F8BD01212977697B002904D000F06F
:101710008BF907003AD03CE000F056F900282BD0B6
:10172000A869B1684018A8616969491C69613229D2
:1017300017D3FEF7D9FC7D21C9002860884203D366
:101740002549FA39884200D929602868FF382D38A0
:101750006860B84202D2E1208000686001206873AE
:101760002C61F068201A642803D30120FFF778FF6A
:10177000F460B068A8602AE0F068201A642803D3F7
:101780000020FFF76DFFF4600320F8BDB06800F0A3
:101790007FFAF068201A642813D370691149201A5F
:1017A000884205D9288880B2FFF754FF746107E0AA
:1017B0007D21C900884203D9308980B2FFF74AFFF2
:1017C000F460B068A860002F01D00120F8BD0020AF
:1017D000F8BD000054000020B20C000080FF07009C
:1017E000000000208813000070B5114E054600244B
:1017F000002202213046FFF77AF9280601D501229E
:1018000000E0002204213046FFF771F90120FFF7C4
:101810000FFF012202213046FFF769F90120FFF78F
:1018200007FF6806641C050EE4B2082CE0D370BD07
:10183000000C005010B5114C012202212046FFF788
:1018400056F90120FFF7F4FE012204212046FFF79C
:101850004EF90120FFF7ECFE002204212046FFF79D
:1018600046F90120FFF7E4FE002202212046FFF79F
:101870003EF90120FFF7DCFE10BD0000000C005017
:1018800010B50D4C002204212046FFF730F901204D
:10189000FFF7CEFE012202212046FFF728F90120A2
:1018A000FFF7C6FE012204212046FFF720F90120A0
:1018B000FFF7BEFE10BD0000000C005070B5184DC3
:1018C0000024224602212846FFF711F90120FFF7E4
:1018D000AFFE012202212846FFF709F90122042167
:1018E0002846FFF704F908E0641CE4B20120FFF782
:1018F0009FFE642C01D9002070BD04212846FFF70B
:10190000F1F80028F0D1002202212846FFF7EFF875
:10191000002204212846FFF7EAF8012070BD0000EC
:10192000000C005007490020086048608860087378
:1019300048730861486188610877487708622031F8
:10194000087170472C000020FFF720F9FFF7B8FD61
:10195000FFF762FD00F097F916491748002522C0ED
:101960001649416001600838FFF7CEF8FFF7DAFF4B
:101970007D26134C134F36010F48FFF7F7F8FFF79A
:1019800093FE01280AD002280ED003280CD06088CC
:10199000B842F1D9002000F07DF8EDE76580A0881D
:1019A000B042E9D30120F6E7002000F073F865802B
:1019B000E2E700000030004054000020FF0F00006C
:1019C00000000020DC05000070B5FFF797F8124E0C
:1019D0000546307900280ED13446203C206A0F4954
:1019E000281A884215D9607F401C60772562FFF76E
:1019F000E5FD002801D0012070BD607F052808D3D7
:101A000007482060074860600120607330712561DD
:101A1000F1E7002070BD00004C000020B80B000072
:101A2000C40900009808000070B5194C0025217FFA
:101A300000292BD06168814200D90125617B0029F2
:101A40000AD0A168002907D019225201914203D976
:101A5000091A322900DD01252168002908D08142B8
:101A600006D9081A64225043FEF73EFB322801D8FB
:101A7000002D09D0207B401CC0B22073032805D361
:101A800003202073012070BD00202073002070BD52
:101A90002C00002070B501218902052424074D0087
:101AA000002805D000222046FFF721F8012204E09B
:101AB00001222046FFF71BF8002229462046FFF7A7
:101AC00016F870BDF8B5054624480C46854200D985
:101AD00005467D21C9002846FEF706FB02466846FA
:101AE000027008466421FEF7FFFA0146684641701D
:101AF00064212846FEF7F8FA08460A21FEF7F4FAB0
:101B00000146684681700A212846FEF7EDFA6846CC
:101B1000C170134A134D00206B46002C1CD10328C2
:101B20001AD20027394606E05E5C002E01D001275C
:101B300003E0491CC9B28142F6D3195C0E463E430C
:101B400001D1002100E0695C1154401CC0B204289E
:101B5000E3D300F057F8F8BD195CF4E70F27000055
:101B600018000020F41C0008F0B587B01421684666
:101B7000FEF7D7FA2148426B08210A434263426BC1
:101B80000A400592416B012529434163406B1C4E7D
:101B9000284005902A4606213046FEF7A8FF062079
:101BA000009011200024019002946946039430466D
:101BB000FEF7FEFE0122052796023F073146384612
:101BC000FEF795FF0122D1023846FEF790FF032071
:101BD0008002009002946946019503943846FEF70E
:101BE000E7FE012231463846FEF781FF0022E90276
:101BF0003846FEF77CFF07B0F0BD00000010024041
:101C0000000C0050F8B507A00068074E00246D4690
:101C10000090315D285D00F009F8641CE4B2042CEA
:101C2000F7D3F8BD686A6C6E1800002070B50C46DA
:101C30000546FFF7FFFD4820FFF7D6FDFFF73EFE04
:101C400000281CD07120FFF7CFFDFFF737FE0028DA
:101C500015D0FFF715FEFFF7EDFD2846FFF7C4FD91
:101C6000FFF72CFE00280AD02046FFF7BDFDFFF746
:101C700025FE002803D0FFF703FE012070BDFFF70B
:101C8000FFFD002070BD10B5FFF76EFF10BD000016
:101C900010B50446FEF732FF1349144B0A69821A45
:101CA0009A421FD94A7B002A1BD00A7F002A18D0EB
:101CB0000A68A24201D2A31A00E0131B962B10D28D
:101CC000D3009A1A1219D2087D23DB000A609A42C7
:101CD00002D3074B9A4200D90B600A68FF3A2D3AAB
:101CE0004A60086110BD00002C000020881300002D
:101CF000B80B00003F065B4F666D7D077F6F0000ED
:101D000000000000000000000000000000000000D3
:101D100000000000000000000000000000000000C3
:101D200001000000020000000300000004000000A9
:101D30000600000007000000080000000900000085
:101D4000601D0008000000202C0000007415000831
:101D50008C1D00082C0000209C0400008415000845
:101D60000000000000000000000000000000000073
:101D7000000000000000000000000000040000005F
:0C1D800001000000000000000024F4003E
:04000005080000B936
:00000001FF
